:020000040800F2
:10000000D0300020010200080D3600084130000801
:10001000093600085B040008376C00080000000087
:100020000000000000000000000000000345000880
:100030005F04000800000000033A000805450008BE
:100040001B0200081B0200081B0200081B0200081C
:100050001B0200081B0200081B0200081B0200080C
:100060001B0200081B0200081B0200081B020008FC
:100070001B0200081B0200081B0200081B020008EC
:100080001B0200081B0200081B020008116B00087D
:10009000216B00081B0200081B0200081B0200085D
:1000A000000000001B0200081B0200081B020008E1
:1000B0001B0200081B0200081B0200081B020008AC
:1000C0001B0200081B0200081B0200081B0200089C
:1000D0001B0200081B0200081B0200081B0200088C
:1000E0001B0200081B0200081B0200081B0200087C
:1000F0001B020008000000001B0200081B02000891
:1001000000000000000000001B0200081B020008A5
:100110001B0200081B0200081B0200080000000070
:100120001B02000800F002F800F05AF80AA090E85C
:10013000000C82448344AAF10107DA4501D100F0A2
:100140004FF8AFF2090EBAE80F0013F0010F18BF15
:10015000FB1A43F001031847E08D0000008E0000F9
:100160000A444FF0000C10F8013B13F0070408BFDD
:1001700010F8014B1D1108BF10F8015B641E05D07B
:1001800010F8016B641E01F8016BF9D113F0080F30
:100190001EBF10F8014BAD1C0C1B09D16D1E58BFC2
:1001A00001F801CBFAD505E014F8016B01F8016BF9
:1001B0006D1EF9D59142D6D370470000002300246C
:1001C00000250026103A28BF78C1FBD8520728BF67
:1001D00030C148BF0B6070471FB51FBD10B510BDC3
:1001E00000F001F91146FFF7F7FF08F025FB00F0DA
:1001F0001FF903B4FFF7F2FF03BC00F027F900007A
:100200000948804709480047FEE7FEE7FEE7FEE7AA
:10021000FEE7FEE7FEE7FEE7FEE7FEE704480549E6
:10022000054A064B70470000854500082501000877
:10023000D01E0020D0300020D0200020D020002070
:1002400053EA020C00F069802DE9F04B4FF00006F4
:10025000002B1FBFB3FA83F503FA05F424FA05F661
:100260005E4012BF1643B2FA82F502FA05F4C5F1F8
:1002700020051EBF22FA05FC44EA0C04203556EA8C
:10028000044C4FEA144418BF641C4FF000084FF0B0
:100290000009904271EB030C39D3002919BFB1FA60
:1002A00081F701FA07F6B0FA80F700FA07F6C7F10E
:1002B00020071EBF20FA07FC46EA0C062037B6FBD3
:1002C000F4FCA7EB0507103F07F01F0BCBF120064E
:1002D0000CFA0BFB2CFA06F644BFB3460026202F7F
:1002E000A4BF5E464FF0000B5BEA060C08BF4FF060
:1002F000010B19EB0B09ABFB027C48EB0608C01B9A
:1003000006FB02CC0BFB03CC71EB0C01C1E70B46E7
:10031000024641464846BDE8F08B13B54FF0000059
:100320004FF00001AFF30080BDE81C40704710B5EE
:10033000203AC0F00B80B1E81850203AA0E81850DD
:10034000B1E81850A0E81850BFF4F5AF5FEA027C9E
:1003500024BFB1E81850A0E8185044BF18C918C00D
:10036000BDE810405FEA827C24BF51F8043B40F8AE
:10037000043B08BF7047D20728BF31F8023B48BF93
:1003800011F8012B28BF20F8023B48BF00F8012BD1
:1003900070474FF0000200B5134694469646203948
:1003A00022BFA0E80C50A0E80C50B1F12001BFF42E
:1003B000F7AF090728BFA0E80C5048BF0CC05DF894
:1003C00004EB890028BF40F8042B08BF704748BFE2
:1003D00020F8022B11F0804F18BF00F8012B704756
:1003E000704770477047754600F02CF8AE46050020
:1003F0006946534620F00700854618B020B5FFF740
:100400000DFFBDE820404FF000064FF000074FF011
:1004100000084FF0000B21F00701AC46ACE8C00922
:10042000ACE8C009ACE8C009ACE8C0098D4670472B
:1004300010B50446AFF300802046BDE81040FFF73A
:10044000D8BE0000004870476C1E002001491820EB
:10045000ABBEFEE726000200704700BFFEE7704714
:1004600072B600BFFEE730B504460D4600222946AD
:10047000204600F001F830BDF0B503460125002408
:100480001148407A01281CDA00200F4E767A0E4F70
:10049000B8553846467A001D40F82630001F467A87
:1004A000083082553E46707A461C7E72044604F13E
:1004B000300008703A2048702F2088700020C870E3
:1004C00000252846F0BD0000601E0020034800689B
:1004D00020F03800014908607047000000300140FA
:1004E00010B5104802F05AF90F480E4908604FF451
:1004F0008270486000210B488160C16001614161E8
:100500004FF4007181613821C161002101624162B3
:1005100081620A21C16202F095F908B1FFF7A0FFDC
:1005200010BD0000700100200030014070B50B4884
:1005300004680A48D038D0F8D45008480830066813
:10054000344454B108220649204602F07BFD0422BF
:1005500003491031284602F075FD70BDD000F81F28
:100560003E00002070B5044600F0BEFA064625465F
:10057000681C10B104480068054400BF00F0B4FADC
:10058000801BA842FAD370BDC00000202DE9F041C5
:1005900004460E4600250027A846514884420ED046
:1005A000504884420BD05048844208D04F4884427F
:1005B00005D04F48844202D04E48844200D104E026
:1005C0004FF49A714CA006F055FBB0B218B1300C44
:1005D000000400B904E040F2351147A006F04AFBE0
:1005E00078E00120A84000EA0607002F71D05148AA
:1005F000A90850F82180A807010F0F20884000EAC1
:1006000008083748844201D1002014E0354884426C
:1006100001D101200FE03448844201D102200AE0D8
:100620003248844201D1032005E03148844201D19F
:10063000042000E00520A907090F8840404522D189
:100640003D480068B8433C490860081D0068B8434D
:10065000091D0860081D0068B843091D0860081DD1
:100660000068B843091D0860A807010F0F2000FAB1
:1006700001F83048A90850F8210020EA08002D4967
:10068000AA0841F8220020686A00032191408843AB
:100690002060E90804F1200050F821006907CA0E23
:1006A0000F2191408843EA0804F1200141F822001B
:1006B000E0686A00032191408843E060606801219E
:1006C000A94088436060A0686A0003219140884384
:1006D000A0606D1C26FA05F0002882D1BDE8F081EB
:1006E000000002400004024000080240000C0240EA
:1006F00000100240001402402E2E2F4472697665CD
:1007000072732F53544D33324C3178785F48414CDB
:100710005F4472697665722F5372632F73746D3301
:10072000326C3178785F68616C5F6770696F2E63D7
:100730000000000008000140000401402DE9F843DA
:1007400006460C460027B8460025B14886420ED022
:10075000B04886420BD0B048864208D0AF488642A7
:1007600005D0AF48864202D0AE48864200D103E0B1
:10077000B121ADA006F07EFA208880B220B12068B9
:100780006FF30F0000B903E0B221A7A006F072FAE0
:10079000606830B36068012823D06068112820D0D9
:1007A000606802281DD0606812281AD06068B0F511
:1007B000881F16D06068B0F5041F12D06068B0F5CD
:1007C000441F0ED06068B0F5901F0AD06068B0F585
:1007D000081F06D06068B0F5481F02D06068032883
:1007E00000D103E0B32190A006F044FA09E1012111
:1007F000B940206800EA0108B8F1000F7ED02079E6
:1008000000F00300012804D0207900F00300022842
:1008100023D1E06840B1E068012805D0E0680228F3
:1008200002D0E068032800D103E0C3217EA006F0D7
:1008300021FAB56879000320884085437900E06893
:1008400088400543B56075680120B840854320792C
:10085000C0F30010B84005437560207900F0030034
:10086000032816D0A06828B1A068012802D0A0688B
:10087000022800D103E0D4216BA006F0FBF9F56853
:1008800079000320884085437900A06888400543AB
:10089000F560207900F00300022834D15C488642DC
:1008A0000ED05C4886420BD05B48864208D05B483D
:1008B000864205D05A48864202D05A48864200D124
:1008C00003E0E12158A006F0D5F920690F2800D8EF
:1008D00003E0E22154A006F0CDF9F90806F120006A
:1008E00050F821507807C10E0F20884085437907C2
:1008F000C90E206988400543F90800E080E006F150
:10090000200040F821503568790003208840854355
:10091000207900F003007900884005433560606865
:1009200000F4403000286BD000BF4E48006840F013
:1009300001004C4908600846006800F00100009082
:1009400000BF00BF4848B90850F82150B807010F50
:100950000F20884085432E48864201D1002014E0B4
:100960002C48864201D101200FE02B48864201D15C
:1009700002200AE02948864201D1032005E02848E8
:10098000864201D1042000E00520B907090F884004
:1009900005433548B90840F821503448056825EA30
:1009A0000805606800F4803008B145EA08052F4862
:1009B0000560001D056825EA0805606800F4003040
:1009C00008B145EA08052948001D0560001D0568B5
:1009D00025EA0805606800F4801008B145EA0805BA
:1009E000224808300560001D056825EA0805606892
:1009F00000F4001008B145EA08051C480C300560F9
:100A00007F1C2068F84000287FF4F1AEBDE8F88331
:100A1000000002400004024000080240000C0240B6
:100A200000100240001402402E2E2F447269766599
:100A300072732F53544D33324C3178785F48414CA8
:100A40005F4472697665722F5372632F73746D33CE
:100A5000326C3178785F68616C5F6770696F2E63A4
:100A6000000000002038024008000140000401405E
:100A700070B506460C461546A0B218B1200C00040D
:100A800000B904E04FF4D07108A006F0F3F80DB1FE
:100A9000012D00D104E040F2A11104A006F0EAF813
:100AA0000DB1B46101E02004B06170BD2E2E2F4461
:100AB0007269766572732F53544D33324C317878A6
:100AC0005F48414C5F4472697665722F5372632FA1
:100AD00073746D33326C3178785F68616C5F677006
:100AE000696F2E6300000000014800687047000035
:100AF000B800002003480068034909680844014918
:100B000008607047B8000020C000002010B5002425
:100B1000032000F005F90F2000F008F808B10124C7
:100B200001E000F02FF8204610BD000070B504462B
:100B3000002511480068D8B10F4800684FF47A7159
:100B4000B1FBF0F00D490968B1FBF0F6304602F058
:100B50005DFA58B9102C07D200222146501E00F031
:100B600075F80748046004E0012502E0012500E073
:100B70000125284670BD0000C0000020780000203C
:100B8000BC00002008B500BF1448006840F00040D9
:100B9000124908600846006800F00040009000BF5D
:100BA00000BF00BF081F006840F00100091F086077
:100BB0000846006800F00100009000BF00BF00BFC1
:100BC000081D006840F08050091D08600846006854
:100BD00000F08050009000BF00BF08BD24380240E4
:100BE00010B50446002C00DB03E0D82108A006F075
:100BF00041F82046002809DB00F01F020121914046
:100C00004209920002F1E022C2F8001100BF10BDBB
:100C10002E2E2F447269766572732F53544D3332E2
:100C20004C3178785F48414C5F4472697665722F29
:100C30005372632F73746D33326C3178785F6861EF
:100C40006C5F636F727465782E6300002DE9F05F4E
:100C500080460C4615460027102D00D203E0C42123
:100C600020A006F007F8102C00D203E0C5211DA03B
:100C700006F000F805F0E2FF0746394622462B460B
:100C800001F00700C0F1070ABAF1040F02D94FF0D2
:100C9000040A01E0C0F1070AD14600F1040ABAF1E2
:100CA000070F02D24FF0000A01E0A0F1030AD44678
:100CB0004FF0010A0AFA09FAAAF1010A0AEA020A3D
:100CC0000AFA0CFA4FF0010B0BFA0CFBABF1010B1B
:100CD0000BEA030B4AEA0B063146404605F0B6FF25
:100CE000BDE8F09F2E2E2F447269766572732F53E4
:100CF000544D33324C3178785F48414C5F447269CF
:100D00007665722F5372632F73746D33326C317842
:100D1000785F68616C5F636F727465782E63000042
:100D200010B50446072C07D0062C05D0052C03D09F
:100D3000042C01D0032C00D103E0AC2109A005F064
:100D400099FF00BF04F00701154A10684FF6FF0233
:100D50001040144A024342EA0120114A106000BFC9
:100D600010BD00002E2E2F447269766572732F53CA
:100D7000544D33324C3178785F48414C5F4472694E
:100D80007665722F5372632F73746D33326C3178C2
:100D9000785F68616C5F636F727465782E630000C2
:100DA0000CED00E00000FA0570B505460C4604F0B5
:100DB0008000802808D104F0070000EB800605F1D0
:100DC000280000EBC60105E004EB840605F5B470CD
:100DD00000EBC6011AB900200873CB8004E00120A3
:100DE00008730B81180C4881002070BD012906D1C1
:100DF000064A526842F00102044B5A6005E0034A79
:100E0000526822F00102014B5A6070470000014015
:100E100070B504460D4605EB850304F1280101EB8E
:100E2000C3014A692946D4F8E80203F034FE70BDD4
:100E300070B504460D4605EB850304F5B47101EB6E
:100E4000C3014A692946D4F8E80203F0A4FE70BD44
:100E500070B504460E4606F0800080280AD106F0E0
:100E6000070000EB800104F1280000EBC105012020
:100E7000687009E006F0070000EB800104F5B4702B
:100E800000EBC1050020687006F00700287000BF65
:100E900094F8A802012801D1022070BD012084F835
:100EA000A80200BF2946206804F072FE00BF00209F
:100EB00084F8A80200BF00BFEFE770B504460E46F5
:100EC00006F00F006168884201D9012070BD06F06C
:100ED000800080280AD106F0070000EB800104F1B1
:100EE000280000EBC1050120687009E006F007004A
:100EF00000EB800104F5B47000EBC10500206870C0
:100F00000020A87006F00700287000BF94F8A8021F
:100F1000012801D10220D9E7012084F8A80200BFEE
:100F20002946206804F08AFF00BF002084F8A80248
:100F300000BF00BFCAE72DE9F04105460C46174641
:100F400007F48040002850D02868B0F8501020786E
:100F500001EBC000801C296801F5806131F81000A8
:100F6000C0F30906A069B04203D3A069801BA06149
:100F700001E00020A061A069A8B900BF227852005A
:100F8000296831F812104BF68F7201EA020080F4E2
:100F9000005040F4004141F0800123785B002A6852
:100FA00022F8131000BF07F04000A8B100BF00BF37
:100FB00022785200296831F8121048F68F7201EA3F
:100FC000020040F4004141F0C00123785B002A6830
:100FD00022F8131000BF00BF002E55D0228961698E
:100FE0003346286805F0A8FD4EE02868B0F8501098
:100FF000207801EBC000801D296801F5806131F87F
:101000001000C0F30906A069B04203D3A069801B99
:10101000A06101E00020A061A069A8B900BF22780A
:101020005200296831F812104BF68F7201EA020063
:1010300080F4005040F4004141F0800123785B00CF
:101040002A6822F8131000BF07F04000A8B900BFBB
:1010500000BF22785200296831F8121048F68F72CA
:1010600001EA020040F4004141F0C00123785B0036
:101070002A6822F8131000BF00BF2EB1628961698F
:101080003346286805F058FD3046BDE8F0812DE96B
:10109000F04705460C46904608F04000002871D005
:1010A0002868B0F85010207801EBC000801C296837
:1010B00001F5806131F81000C0F30907A069B8425A
:1010C00003D9A069C01BA06101E00020A061A06954
:1010D00000287ED100BF6078C8B900BF29682A689F
:1010E000B2F8502011442278022303EBC20201F52A
:1010F000806303EB420000BF028848F2FF331A40CE
:101100000280028842F40042028000BF13E060784F
:10111000012810D100BF28682A68B2F85020104476
:101120002278022303EBC20200F5806303EB420145
:1011300000220A8000BF00BF00BF2968607810BB92
:1011400000BF2B68D5F800C0BCF850C0634494F8C9
:1011500000C04FF0060909EBCC0C03F5806909EBE0
:101160004C0000BFB0F800C048F2FF390CEA090C8F
:10117000A0F800C0B0F800C04CF4004CA0F800C0CB
:1011800000BF11E0C0E0607801280DD12868B0F8F8
:10119000500001442078062303EBC00001F5806372
:1011A00003EB40020020108000BF21782846FFF7A3
:1011B0002FFE08F48040002816D000BF00BF227820
:1011C0005200296831F8121048F68F7201EA0200C5
:1011D00000E00AE040F4004141F4814123785B00E3
:1011E0002A6822F8131000BFCAE108F48040A8B1B1
:1011F00000BF00BF22785200296831F8121048F66B
:101200008F7201EA020040F4004141F481422378E8
:101210005B00296821F8132000BF00BF94F8240068
:101220000128E1D1606938446061E0693844E061D7
:101230002169206A884204D32669206A801B2062C3
:101240000BE0206A20B93E46002084F8240004E028
:10125000002084F82400266A206200BF6078B8BBB2
:1012600000BF2A682968B1F850100A442178022387
:1012700003EBC10102F5806303EB4101084600BFA7
:1012800056B9038848F2FF3C03EA0C030380038845
:1012900043F40043038019E03E2E0BD800BF7108D1
:1012A00006F0010303B1491C4FF6FF7303EA8123E3
:1012B00003800BE000BF710906F01F0303B9491E4C
:1012C0004FF4004343EA8123038000BF00BF13E0D3
:1012D000FFE7607801280FD100BF28682A68B2F8BC
:1012E000502010442278022303EBC20200F58063F1
:1012F00003EB42010E8000BF00BFB3B222896169D7
:10130000286805F045FC3BE12868B0F850102078CB
:1013100001EBC000801D296801F5806131F81000E3
:10132000C0F30907A069B84203D3A069C01BA0613C
:1013300001E00020A061A06900287DD100BF607895
:10134000C8B900BF29682A68B2F850201144227831
:10135000022303EBC20201F5806303EB420000BFEE
:10136000028848F2FF331A400280028842F40042A9
:10137000028000BF13E06078012810D100BF286808
:101380002A68B2F8502010442278022303EBC202EC
:1013900000F5806303EB420100220A8000BF00BF1A
:1013A00000BF2968607808BB00BF2B68D5F800C073
:1013B000BCF850C0634494F800C04FF0060909EB34
:1013C000CC0C03F5806909EB4C0000BFB0F800C0FD
:1013D00048F2FF390CEA090CA0F800C0B0F800C0D0
:1013E0004CF4004CA0F800C000BF10E06078012869
:1013F0000DD12868B0F8500001442078062303EB93
:10140000C00001F5806303EB40020020108000BFA4
:1014100021782846FFF7FCFC08F48040002816D10C
:1014200000BF00BF22785200296831F8121048F638
:101430008F7201EA020000E00AE040F4004141F44A
:10144000814123785B002A6822F8131000BF97E0DF
:1014500008F48040A8B900BF00BF22785200296874
:1014600031F8121048F68F7201EA020040F4004190
:1014700041F4814123785B002A6822F8131000BFF1
:1014800000BF94F8240001287AD160693844606173
:10149000E0693844E0612169206A884204D3266902
:1014A000206A801B20620BE0206A20B93E460020A3
:1014B00084F8240004E0266A0020206284F82400D6
:1014C00000BF2A68607890BB00BFD5F800C02968CB
:1014D000B1F850108C4421784FF0060909EBC10196
:1014E0000CF5806909EB4101084600BF76B9B0F8F8
:1014F000009048F2FF3A09EA0A09A0F80090B0F813
:10150000009049F40049A0F8009020E03E2E0FD84A
:1015100000BF710806F00109B9F1000F00D0491CA5
:101520004FF6FF7909EA8129A0F800900FE010E05A
:1015300000BF710906F01F09B9F1000F00D1491E63
:101540004FF4004949EA8129A0F8009000BF00BF8C
:101550000FE0607801280CD12868B0F850000244F0
:101560002078062101EBC00002F5806101EB400309
:101570001E8000BFB3B262896169286805F008FB6C
:1015800000BF22785200296831F8121048F6BF7265
:1015900001EA020080F0100080F0200040F40041D9
:1015A00041F0800123785B002A6822F8131000BF05
:1015B0000020BDE8F087024600207047024601F097
:1015C000070000EB800302F5B47000EBC300C069B4
:1015D00070472DE9F04705460E4690461F464FF0EE
:1015E000000906F0800080280AD106F0070000EB11
:1015F000800105F1280000EBC1040120607009E0C2
:1016000006F0070000EB800105F5B47000EBC104A3
:101610000020607006F007002070C4F81080E770AA
:10162000607808B12078E081022F01D1002020717C
:1016300000BF95F8A802012802D10220BDE8F0877A
:10164000012085F8A80200BF2146286804F07AF836
:1016500000BF002085F8A80200BF4846EEE72DE94C
:10166000F04105460E461746984606F0070000EB87
:10167000800105F5B47000EBC1046761C4F81880FF
:101680000020E061607006F00700207006F007009F
:1016900020B92146286804F06CFC03E02146286844
:1016A00004F067FC0020BDE8F08170B504460E46EA
:1016B00006F007006168884201D9012070BD06F07C
:1016C000800080280AD106F0070000EB800104F1B9
:1016D000280000EBC1050120687007E006EB8601D9
:1016E00004F5B47000EBC105002068700120A870FB
:1016F00006F00700287000BF94F8A802012801D165
:101700000220DBE7012084F8A80200BF29462068F8
:1017100004F001FC00BF002084F8A80200BF00BF55
:10172000CCE72DE9F04105460E4690461F4606F0EF
:10173000070000EB800105F1280000EBC104C4F8AC
:101740001480A761012084F8240027620020E06152
:101750000120607006F00700207006F0070020B935
:101760002146286804F005FC03E02146286804F0BF
:1017700000FC0020BDE8F08110B50446206805F0AB
:10178000D7F900F40040B0F5004F02D1204601F037
:101790003FFF206805F0CCF900F48060B0F5806F61
:1017A0000FD12068B0F844004FF6FF31084021689F
:1017B000A1F84400204600F077F90021204600F00F
:1017C00093F9206805F0B4F900F48040B0F5804F3B
:1017D00008D12068B0F844004BF6FF71084021683A
:1017E000A1F84400206805F0A3F900F40050B0F51A
:1017F000005F08D12068B0F844004DF6FF71084042
:101800002168A1F84400206805F092F900F48050A6
:10181000B0F5805F1DD12068B0F840004FF6FB7135
:1018200008402168A1F840002068B0F840004FF659
:10183000F77108402168A1F84000204600F046F901
:101840002068B0F844004EF6FF7108402168A1F806
:101850004400206805F06CF900F40060B0F5006FFA
:101860001BD12068B0F8400040F008002168A1F8C2
:1018700040002068B0F844004FF2FF710840216832
:10188000A1F844002068B0F8400040F0040021684E
:10189000A1F84000204600F069F9206805F048F9F9
:1018A00000F40070B0F5007F0BD12068B0F8440060
:1018B0004FF6FF5108402168A1F84400204600F08F
:1018C0000CF9206805F034F900F48070B0F5807FE1
:1018D00008D12068B0F844004FF6FF610840216845
:1018E000A1F8440010BD000030B585B0044614B91D
:1018F000012005B030BD48492068884200D103E08E
:10190000852146A005F0B6F994F8A90228B900206F
:1019100084F8A802204600F09DF8032084F8A9026C
:10192000206804F081FA002531E0012105EB8502F1
:1019300004F1280000EBC200417005EB850104F1C1
:10194000280000F8315005EB850100EBC100C5818E
:10195000002105EB850204F1280000EBC200C170F4
:1019600005EB850204F1280000EBC200016105EBE4
:10197000850204F1280000EBC200416105EB8502FD
:1019800004F1280000EBC2008161681CC5B26068E8
:10199000A842CAD800252AE0002105EB850204F5FB
:1019A000B47000EBC200417005EB850104F5B47022
:1019B00000F83150002105EB850200EBC200C17038
:1019C00005EB850204F5B47000EBC200016105EB84
:1019D000850204F5B47000EBC200416105EB85029D
:1019E00004F5B47000EBC2008161681CC5B2606888
:1019F000A842D1D8142204F110016846FEF797FCE2
:101A000094E80F0004F005FA002084F82400012077
:101A100084F8A90200206CE7005C00402E2E2F44C1
:101A20007269766572732F53544D33324C31787826
:101A30005F48414C5F4472697665722F5372632F21
:101A400073746D33326C3178785F68616C5F70638A
:101A5000642E630038B504461149206888421DD1C0
:101A600000BF1048006840F400000E4908600846B6
:101A7000006800F40000009000BF00BF0022114683
:101A80001320FFF7E3F81320FFF7AAF8002211460E
:101A90001420FFF7DBF81420FFF7A2F838BD000090
:101AA000005C00402438024070B504460125A0685F
:101AB000022801D0FEF7D4FC2946D4F8E80203F04E
:101AC000A5F9D4F8E80203F05BF970BD10B504463F
:101AD000D4F8E80203F082F910BD10B50446D4F83A
:101AE000E80203F082F910BD70B504460D4600BF50
:101AF00094F8A802012801D1022070BD012084F8C9
:101B0000A80200BF84F824502946206805F039F85F
:101B100000BF002084F8A80200BF00BFEDE710B5A9
:101B2000044604F52C71D4F8E80203F086F910BDE0
:101B300010B5044600BF94F8A802012801D1022084
:101B400010BD012084F8A80200BF206804F0D6FF71
:101B500001212046FFF74AF9206804F057F900BF39
:101B6000002084F8A80200BF00BFE9E710B50446D2
:101B7000D4F8E80203F0BAF9A06928B10348006874
:101B800040F006000149086010BD000010ED00E0C3
:101B90002DE9F04104460D4614B90120BDE8F0815D
:101BA0000DB1012D00D104E040F22A31B0A005F0C2
:101BB00061F8BD48006800F00100A84218D200BFDB
:101BC000012D05D1B848006840F00400B64908600E
:101BD000B548006820F001002843B349086000BF01
:101BE0000846006800F00100A84201D00120D5E7B6
:101BF000207800F00200022827D1A068B8B1A068C0
:101C0000802814D0A068902811D0A068A0280ED0F9
:101C1000A068B0280BD0A068C02808D0A068D02841
:101C200005D0A068E02802D0A068F02800D104E028
:101C300040F241318EA005F01DF89C48006820F06C
:101C4000F000A168084399490860207800F001007D
:101C5000002857D0606840B16068012805D06068EE
:101C6000022802D06068032800D104E04FF45271CA
:101C70007FA004F0FFFF6068022807D18B48083876
:101C8000006800F40030F8B9012087E76068032895
:101C900007D186480838006800F00070A0B901201C
:101CA0007CE76068012807D180480838006800F0A8
:101CB000020048B9012071E77C480838006800F448
:101CC000007008B9012069E77848006820F0030037
:101CD0006168084375490860FEF706FF06466068BC
:101CE000022810D108E0FEF7FFFE801B41F2883188
:101CF000884201D9032051E76C48006800F00C00CD
:101D00000828F0D137E06068032810D108E0FEF71A
:101D1000EBFE801B41F28831884201D903203DE768
:101D20006248006800F00C000C28F0D123E06068E5
:101D3000012810D108E0FEF7D7FE801B41F2883160
:101D4000884201D9032029E75848006800F00C00B8
:101D50000428F0D10FE008E0FEF7C6FE801B41F238
:101D60008831884201D9032018E75048006800F004
:101D70000C000028F0D14C48006800F00100A84297
:101D800018D900BF012D05D14748006840F0040074
:101D9000454908604448006820F001002843424952
:101DA000086000BF0846006800F00100A84201D0AA
:101DB0000120F3E6207800F0040004281FD1E06839
:101DC00078B1E068B0F5806F0BD0E068B0F5A06F37
:101DD00007D0E068B0F5C06F03D0E068B0F5E06F01
:101DE00000D104E040F2AD3121A004F043FF2F48C0
:101DF000006820F4E060E16808432C49086020781E
:101E000000F00800082820D1206978B12069B0F5D9
:101E1000806F0BD02069B0F5A06F07D02069B0F5B6
:101E2000C06F03D02069B0F5E06F00D104E04FF43B
:101E30006D710FA004F01EFF1C48006820F4605074
:101E4000216940EAC1001949086000F037F81749D4
:101E50000968C1F30311164A515CC840154908606E
:101E600015480068FEF762FE0746384696E6000011
:101E70002E2E2F447269766572732F53544D333270
:101E80004C3178785F48414C5F4472697665722FB7
:101E90005372632F73746D33326C3178785F68617D
:101EA0006C5F7263632E6300003C0240083802409E
:101EB000698E000878000020BC0000202DE9F05F4A
:101EC0002248D0F8009009F00C0070B3042804D028
:101ED000082804D00C2829D103E01D4D32E01D4D07
:101EE00030E01D48C9F3834110F801A0C9F38150C7
:101EF000441C1648006800F4803050B11548A0FB1F
:101F00000A700146224600233846FEF799F9064634
:101F100009E00F48A0FB0A7001462246002338461C
:101F2000FEF78EF9064635460CE000E000BF074894
:101F3000001F0068C0F3423B0BF10100012181400A
:101F4000CD0300BF00BF2846BDE8F09F083802401F
:101F50000024F40000127A00608E00082DE9F84396
:101F6000044614B90120BDE8F8832068B8B1207890
:101F700000F0010098B9207800F0020002280ED08D
:101F8000207800F00800082809D0207800F004002C
:101F9000042804D0207800F01000102800D104E0BC
:101FA0004FF4A871ECA004F065FEF948006800F059
:101FB0000C06F748006800F48037207800F0010034
:101FC000002870D0606828B16068012802D060687D
:101FD000052800D104E040F25911DFA004F04AFEC8
:101FE000082E04D00C2E0ED1B7F5803F0BD1E84857
:101FF0000838006800F40030002867D060680028C6
:1020000064D10120AFE700BF6068012808D1E04833
:102010000838006840F48030DD49083908602DE058
:10202000606868B9DA480838006820F48030D84918
:10203000083908600846006820F4802008601DE028
:10204000606805280DD1D2480838006840F4802027
:10205000CF49083908600846006840F480300860BD
:102060000CE0CB480838006820F48030C8490839B3
:1020700008600846006820F48020086000BF60689F
:1020800090B1FEF731FD054606E0FEF72DFD401B41
:10209000642801D9032066E7BD480838006800F4C9
:1020A00000300028F1D011E0FEF71EFD054606E0E5
:1020B000FEF71AFD401B642801D9032053E7B448FA
:1020C0000838006800F400300028F1D1207800F0D2
:1020D0000200022867D1E06810B1E068012800D151
:1020E00004E04FF4C6719CA004F0C4FD20691F28D1
:1020F00000D804E040F28D1197A004F0BBFD042E3F
:1021000002D00C2E17D1B7B9A1480838006800F0EA
:10211000020020B1E068012801D0012023E79C489B
:10212000001F006820F4F850216940EA0120984916
:10213000091F086037E0E06800B301209549086096
:10214000FEF7D2FC054606E0FEF7CEFC401B022857
:1021500001D9032007E78E480838006800F0020024
:102160000028F1D08A48001F006820F4F850216947
:1021700040EA01208649091F086014E000208549D3
:102180000860FEF7B1FC054606E0FEF7ADFC401B1B
:10219000022801D90320E6E67D480838006800F0EF
:1021A00002000028F1D1207800F0100010286FD133
:1021B000002E6ED176480838006800F4007018B11F
:1021C000A06908B90120CEE6E069FF2800D804E044
:1021D00040F2D71160A004F04DFD206AB8B1206A2A
:1021E000B0F5005F13D0206AB0F5804F0FD0206AA1
:1021F000B0F5C04F0BD0206AB0F5004F07D0206A71
:10220000B0F5204F03D0206AB0F5404F00D104E074
:102210004FF4EC7150A004F02DFD5D49091F206AB8
:10222000096801F46041884219D9206A01F0EAFB8B
:1022300008B1012097E65648001F006820F460406E
:10224000216A08435249091F0860217F5048001F36
:10225000006861F31F604E49091F08601AE04C488E
:10226000001F006820F46040216A08434849091FA4
:102270000860217F4648001F006861F31F604449E1
:10228000091F0860206A01F0BDFB18B101206AE651
:1022900061E019E00121206A01EB50310120884002
:1022A000C0033B490968C1F303113B4A515CC84074
:1022B0003A4908603A480068FEF738FC8046B8F1B1
:1022C000000F48D040464EE6A06910B1A069012831
:1022D00000D104E04FF402711FA004F0CBFCA06910
:1022E000C0B301202B490862FEF7FEFB054606E05D
:1022F000FEF7FAFB401B022801D9032033E62448ED
:102300000838006800F400700028F1D0E069FF2868
:1023100000D804E04FF407710FA004F0ABFC206A72
:10232000B8B1206AB0F5005F13D0206AB0F5804FD5
:102330000FD0206AB0F5C04F0BD0206AB0F5004F27
:1023400007D0206AB0F5204F03D0206AB0F5404F87
:1023500028D12DE03CE050E02E2E2F4472697665A6
:1023600072732F53544D33324C3178785F48414C5F
:102370005F4472697665722F5372632F73746D3385
:10238000326C3178785F68616C5F7263632E6300D2
:102390000838024000004742698E0008780000209B
:1023A000BC00002040F21D21AFF2540004F062FC9A
:1023B000F648006820F46040216A0843F349086049
:1023C000217FF248006861F31F60F049086014E063
:1023D0000020EF490862FEF787FB054606E0FEF79E
:1023E00083FB401B022801D90320BCE5E748001FFE
:1023F000006800F400700028F1D1207800F0080097
:10240000082838D1606910B16069012800D105E061
:102410004FF40F71AFF2C00004F02CFC6069A8B15A
:102420000120DC490860FEF75FFB054606E0FEF789
:102430005BFB401B022801D9032094E5D3483030D0
:10244000006800F002000028F1D014E00020D1491B
:102450000860FEF749FB054606E0FEF745FB401B1A
:10246000022801D903207EE5C8483030006800F01A
:1024700002000028F1D1207800F00400042872D175
:102480004FF00009A06828B1A068012802D0A06818
:10249000052800D105E04FF41A71AFF2441004F0A2
:1024A000E9FBBA482030006800F0805088B900BFCE
:1024B000B6482030006840F08050B44920310860B0
:1024C0000846006800F08050009000BF00BF4FF049
:1024D0000109B148006800F48070B0B9AE480068E6
:1024E00040F48070AC490860FEF7FEFA054606E04D
:1024F000FEF7FAFA401B642801D9032033E5A64809
:10250000006800F480700028F2D000BFA0680128A5
:1025100008D19E483030006840F480709B493031CB
:1025200008602EE0A06868B998483030006820F450
:1025300080709649303108600846006820F4806059
:1025400008601EE0A06805280ED190483030006871
:1025500040F480608D49303108600846006840F4DE
:10256000807008600DE044E088483030006820F456
:1025700080708649303108600846006820F4806029
:10258000086000BFA068A0B1FEF7AEFA054608E0FB
:10259000FEF7AAFA401B41F28831884201D9032094
:1025A000E1E47A483030006800F400700028EFD091
:1025B00013E0FEF799FA054608E0FEF795FA401B8E
:1025C00041F28831884201D90320CCE46F48303091
:1025D000006800F400700028EFD1B9F1010F07D1B5
:1025E0006A482030006820F0805068492031086037
:1025F00000BF606A28B1606A012802D0606A0228C0
:1026000000D105E04FF42B71AFF2B42004F032FB9F
:10261000606A002877D00C2E76D0606A022874D1C8
:10262000A06A18B1A06AB0F5803F00D105E040F281
:10263000B521AFF2DC2004F01DFBE06AF8B1E06ADE
:10264000B0F5802F1BD0E06AB0F5002F17D0E06AFC
:10265000B0F5402F13D0E06AB0F5801F0FD0E06ACC
:10266000B0F5A01F0BD0E06AB0F5C01F07D0E06A3C
:10267000B0F5E01F03D0E06AB0F5001F00D105E01F
:1026800040F2B621AFF2303004F0F4FA206BB0F52E
:10269000800F07D0206BB0F5000F03D0206BB0F592
:1026A000400F00D105E040F2B721AFF2543004F002
:1026B000E1FA002036490866FEF716FA054606E0FC
:1026C000FEF712FA401B022801D903204BE42F48E1
:1026D000001F006800F000700028F1D1D4E90A0161
:1026E0000843216B08432949091D096821F47D012C
:1026F00008432649091D0860012025490866FEF7A0
:10270000F3F9054609E03EE025E00EE0FEF7ECF9BE
:10271000401B022801D9032025E41C48001F006843
:1027200000F000700028F1D02DE000201849086664
:10273000FEF7DAF9054606E0FEF7D6F9401B022857
:1027400001D903200FE41148001F006800F0007059
:102750000028F1D117E0606A012800D103E40B489A
:10276000001D076807F48031A06A814209D107F48F
:102770007011E06A814204D107F44001206B81426C
:1027800001D001203EE400203CE400000438024077
:1027900000004742800647420070004010B50446E2
:1027A0000CB9012010BD14492068884207D0134994
:1027B0002068884203D012492068884200D104E092
:1027C00040F2C7110FA004F055FA022084F851001E
:1027D0002068006820F0400021680860204600F072
:1027E00085F90020606584F8510000BF84F850002E
:1027F00000BF00BFD6E700000030014000380040B5
:10280000003C00402E2E2F447269766572732F5360
:10281000544D33324C3178785F48414C5F44726993
:102820007665722F5372632F73746D33326C317807
:10283000785F68616C5F7370692E6300014691F880
:102840005100704710B504460CB9012010BD9649DF
:102850002068884207D095492068884203D094496F
:102860002068884200D104E04FF4A17191A004F0E7
:1028700001FA606818B16068B0F5827F00D104E0A9
:1028800040F243118BA004F0F5F9A06838B1A068BC
:10289000B0F5806F03D0A068B0F5004F00D104E020
:1028A0004FF4A27183A004F0E5F9E068B0F5006F81
:1028B00001D0E06800B904E040F245117DA004F0C9
:1028C000D9F9A069B0F5007F05D0A06918B1A06959
:1028D000B0F5802F00D104E04FF4A37175A004F08F
:1028E000C9F9E069A0B1E069082811D0E0691028B1
:1028F0000ED0E06918280BD0E069202808D0E069E4
:10290000282805D0E069302802D0E069382800D1B5
:1029100004E040F2471167A004F0ACF9206A10B15E
:10292000206A802800D104E04FF4A47161A004F073
:10293000A1F9606A10B1606A102800D104E040F289
:102940004B115CA004F096F9606A00283AD1206926
:1029500010B12069022800D104E04FF4A77155A0FE
:1029600004F088F9606910B16069012800D104E0C1
:1029700040F24F114FA004F07DF96068B0F5827FFE
:102980001DD1E069A0B1E069082811D0E0691028E4
:102990000ED0E06918280BD0E069202808D0E06943
:1029A000282805D0E069302802D0E069382800D115
:1029B00028E040F253113FA004F05CF922E000212E
:1029C000E1611FE0E069A0B1E069082811D0E06989
:1029D00010280ED0E06918280BD0E069202808D014
:1029E000E069282805D0E069302802D0E06938285D
:1029F00000D104E040F25D112EA004F03BF900216B
:102A0000216161610021A16294F8510028B9002080
:102A100084F85000204600F081F8022084F851002C
:102A20002068006820F0400021680860A08800F459
:102A30008270218901F404410843A18901F40061F5
:102A40000843217C01F002010843217D01F00101CE
:102A50000843218B01F400710843217F01F0380104
:102A600008432021095D01F080010843218D01F414
:102A700000510843216808600421A06901EA104060
:102A800094F8241001F01001084321684860206880
:102A9000C06920F400602168C861002060650120E1
:102AA00084F851000020D1E6003001400038004099
:102AB000003C00402E2E2F447269766572732F53AE
:102AC000544D33324C3178785F48414C5F447269E1
:102AD0007665722F5372632F73746D33326C317855
:102AE000785F68616C5F7370692E630010B504468F
:102AF00007492068884209D10648006820F48050C0
:102B000004490860E0210448FDF740FD10BD0000C5
:102B100000300140203802400000024010B586B06D
:102B20000446142101A8FDF734FC184920688842A6
:102B300029D100BF1648006840F48050144908604D
:102B40000846006800F48050009000BF00BF00BF3E
:102B5000081F006840F00100091F0860084600686F
:102B600000F00100009000BF00BFE02001900220B3
:102B7000029001200390032004900520059001A9F4
:102B80000448FDF7DBFD06B010BD00000030014039
:102B900020380240000002402DE9F84F04468846E4
:102BA00016461D464FF0000AA06818B1A068B0F59F
:102BB000004F00D104E040F2113169A004F05AF84E
:102BC00000BF94F85000012802D10220BDE8F88F20
:102BD000012084F8500000BFFDF786FF0746B1468C
:102BE00094F85100012802D04FF0020AADE0B8F18C
:102BF000000F00D016B94FF0010AA6E0032084F8B8
:102C0000510000206065C4F83080A686E686A06387
:102C1000A087E08760642064A068B0F5004F0BD106
:102C20002068006820F04000216808602068006883
:102C300040F48040216808602068006800F040008F
:102C4000402805D02068006840F0400021680860F6
:102C5000E068B0F5006F2FD1606810B1B9F1010FD5
:102C600009D1206B00882168C860206B801C20631C
:102C7000E08E401EE0861BE02068806800F00200C5
:102C800002280AD1206B00882168C860206B801C54
:102C90002063E08E401EE0860AE0FDF725FFC01BA2
:102CA000A84201D3681C00B915B94FF0030A4CE0E3
:102CB000E08E0028E0D12EE0606810B1B9F1010F7C
:102CC00009D1206B007821680873206B401C2063B9
:102CD000E08E401EE0861BE02068806800F0020065
:102CE00002280AD1206B007821680873206B401CF1
:102CF0002063E08E401EE0860AE0FDF7F5FEC01B73
:102D0000A84201D3681C00B915B94FF0030A1CE0B2
:102D1000E08E0028E0D13A462946204601F0FCFA30
:102D200008B120206065A06850B900BF0020009065
:102D30002068C068009020688068009000BF00BFD5
:102D4000606D08B14FF0010A00BF012084F8510006
:102D500000BF002084F8500000BF504636E7000056
:102D60002E2E2F447269766572732F53544D333271
:102D70004C3178785F48414C5F4472697665722FB8
:102D80005372632F73746D33326C3178785F68617E
:102D90006C5F7370692E63002DE9FF5F04468846FF
:102DA00091461D460E9E0120029000200190A068D1
:102DB00000B904E040F2854186A003F05BFF00BF4C
:102DC00094F85000012803D1022004B0BDE8F09F20
:102DD000012084F8500000BFFDF786FE074694F8F6
:102DE00051B060680390AA46BBF1010F0BD0039865
:102DF000B0F5827F04D1A06810B9BBF1040F02D0F6
:102E000002200190DBE0B8F1000F03D0B9F1000F10
:102E100000D015B901200190D1E094F851000428A8
:102E200002D0052084F8510000206065C4F8389075
:102E3000E587A587C4F83080E586A58620646064B0
:102E40002068006800F04000402805D02068006835
:102E500040F0400021680860E068B0F5006F4AD19A
:102E6000606810B1BAF1010F09D1206B00882168A8
:102E7000C860206B801C2063E08E401EE08633E03B
:102E80002068806800F00200022810D1E08E70B146
:102E9000029801280BD1206B00882168C860206B44
:102EA000801C2063E08E401EE08600200290206897
:102EB000806800F0010068B1E08F58B12068C068F8
:102EC000A16B0880A06B801CA063E08F401EE08790
:102ED00001200290FDF708FEC01BB04204D3701C15
:102EE00010B1032001906AE0E08E0028C8D1E08F85
:102EF0000028C5D14AE0606810B1BAF1010F09D1CC
:102F0000206B007821680873206B401C2063E08EE2
:102F1000401EE08634E02068806800F0020002284D
:102F200010D1E08E70B1029801280BD1206B00788F
:102F300021680873206B401C2063E08E401EE086F1
:102F4000002002902068806800F0010068B1E08FE6
:102F500058B12068C068A16B0870A06B401CA063CA
:102F6000E08F401EE08701200290FDF7BDFDC01BF1
:102F7000B04201D3701C00B916B9032001901EE0C5
:102F8000E08E0028C7D1E08F0028C4D13A463146F0
:102F9000204601F0C1F920B1012001902020606598
:102FA0000DE0A06850B900BF002000902068C06804
:102FB000009020688068009000BF00BF00BF012023
:102FC00084F8510000BF002084F8500000BF019831
:102FD000FBE600002E2E2F447269766572732F5324
:102FE000544D33324C3178785F48414C5F447269BC
:102FF0007665722F5372632F73746D33326C317830
:10300000785F68616C5F7370692E630070B5044609
:103010002546681EB0F1807F01D301200FE0681EB5
:103020004FF0E02148610F214FF0FF3003F00EFE1A
:1030300000204FF0E021886107200861002070BD6A
:1030400000BFFEE730B50B46002100BF16E00A24A2
:10305000B4EB107F05D9302404EB107403F8114051
:1030600005E0412404EB10740A3C03F81140000110
:1030700000254C00641C1D554C1CE1B29142E6DB5E
:1030800030BD70B50546D5F8904241F20C002044A1
:10309000007B50B941F20C002044806828B1607A6E
:1030A00018B90121284601F0FFFE8121284601F0D0
:1030B000FBFE607A022807D11F2341F20C00221880
:1030C0000121284601F044FE70BD000070B50546A0
:1030D000D5F8904241F20C002044406841F22C01A6
:1030E0002144486041F20C002044806841F22C01E8
:1030F000214488600121284601F0B3FD1F2816D124
:1031000041F20C0000592E49884210D141F20C00C6
:103110002044407B01280AD841F20C002044807BE7
:1031200028B141F20C002044807B10280ED941F2D6
:103130000C002044417B20230522284600F0D6FFC6
:10314000022060722846FFF79CFF36E041F20C0037
:103150002044417B41F20C0022180F32284600F037
:103160001FFD00280BDA207A052804D1012128460A
:1031700000F0CAF821E02846FFF783FF1DE0207A1F
:10318000022819D0207A012816D0207A032813D0DB
:10319000608930B1628904F10C01284600F0D4F84E
:1031A0000BE0608920B90021284600F0ADF804E06A
:1031B0002846FFF766FF00E070BD00BFFCE7000097
:1031C0005553424370B506460D46D6F89042607A94
:1031D000022806D18121304601F066FE002060728F
:1031E0000CE005F08000802807D1607A012804D027
:1031F0000121304600F088F800E070BD00BFFCE718
:1032000070B505460E46D5F89042207A022804D0C3
:10321000032815D0042818D111E041F20C002044F5
:10322000417B41F20C0022180F32284600F0B8FC16
:10323000002803DA0121284600F066F806E000BF06
:103240000021284600F060F800E000BF00BF70BD1C
:1032500070B505460E46D5F89042207A10B1012887
:1032600016D103E02846FFF731FF12E041F20C00CF
:103270002044417B41F20C0022180F32284600F016
:103280008FFC002803DA0121284600F03DF800E019
:1032900000BF00BF70BDD0F8901200220A727047C4
:1032A00070B50546D5F8904200202072607200216A
:1032B00041F25D000155401E0155D5F894020168A8
:1032C000002088470121284601F0B8FC81212846CA
:1032D00001F0B4FC1F2341F20C0022180121284602
:1032E00001F036FD70BD70B50546D5F8904200205E
:1032F0002072012060721F2341F20C00221801216C
:10330000284601F025FD70BD70B505460E46D5F87E
:1033100090420C4941F22C000151204406730020D8
:1033200020720D2341F22C0022188121284601F041
:10333000E7FD1F2341F20C0022180121284601F06D
:1033400007FD70BD555342532DE9F04106460F4627
:103350001546D6F8904241F20C0020448068A842FD
:1033600004D241F20C002044806800E028461FFA95
:1033700080F841F22C0020448068401B41F22C016F
:1033800021448860002041F22C012144087304206C
:10339000207243463A468121304601F0B1FDBDE836
:1033A000F081000010B528492848FDF75CF828494D
:1033B000087000202749087000BF6420FDF7D2F88C
:1033C00001222149002004F0D1FB2149087001228B
:1033D0001D49214804F0CAFB1D4908701D480078AA
:1033E000401C1C4908701A48007818B1084600783B
:1033F0000528E2DD0B2219A11B4804F0E7FB144964
:1034000008701A4B04221AA1174804F01DFE104937
:103410000870154804F03CFA012210A1124804F08B
:10342000D5FB0B49087000210F4804F047FA0E48FD
:103430000E4B1149C26804F0E1FC054908700A48C6
:1034400004F026FA10BD0000A50000209000002026
:10345000A4000020A9000020C019002054455354A6
:103460002E74737400000000F01B0020B0000020D8
:103470007465737400000000201E002000B587B042
:10348000142102A8FCF785FF00BF4748006840F000
:103490000400454908600846006800F004000190F7
:1034A00000BF00BF00BF0846006840F02000086071
:1034B0000846006800F02000019000BF00BF00BF78
:1034C0000846006840F0010008600846006800F007
:1034D0000100019000BF00BF00BF0846006840F037
:1034E000020008600846006800F00200019000BF7A
:1034F00000BF00BF0846006840F0080008600846AA
:10350000006800F00800019000BF00BF0022082101
:103510002648FDF7ADFA012210212448FDF7A8FA4C
:103520004FF6FF700290032003900020049002A940
:103530001F48FDF703F948F207700290032003903B
:103540000020049002A91948FDF7F8F8082002901D
:1035500001200390002004900320059002A9134845
:10356000FDF7ECF810200290012003900490032056
:10357000059002A90D48FDF7E1F84FF6FF700290A3
:10358000032003900020049002A90A48FDF7D6F812
:1035900004200290032003900020049002A9064812
:1035A000FDF7CCF807B000BD1C3802400000024017
:1035B0000008024000040240000C024010B5002246
:1035C0000D490E4801F028FA08B1FCF749FF0C49F3
:1035D0000A4801F034FE08B1FCF742FF09490748E8
:1035E00001F031FD08B1FCF73BFF044801F0F0FEAB
:1035F00008B1FCF735FF10BD08000020C80100200D
:10360000CC0000205800002000BFFEE700BFFEE70E
:103610002DE9F0470546EAE12868B0F844A00AF031
:103620000F06002E7ED10AF01000B0BB00BF296843
:10363000098848F60F7201EA020040F400412A6846
:10364000118000BF05F128042868B0F850102078D8
:1036500001EBC000801C296801F5806131F8100081
:10366000C0F30900E061E16960690844606100211C
:103670002846FDF7CDFB95F824000028CBD0A069A3
:103680000028C8D195F8240040F080002968A1F8EE
:103690004C00002085F82400A9E1FFE705F5B4748B
:1036A0002868B0F8008008F4006030B32868B0F8EB
:1036B0005010207801EBC000801D296801F5806161
:1036C00031F81000C0F30900E061A18B8BB2E288F1
:1036D00005F52C71286803F02FFA00BF29680988C6
:1036E00040F68F7201EA020040F080012A681180E2
:1036F00000BF2846FEF713FA79E108F400400028DD
:1037000089D000BF2968098840F68F7201EA02005B
:1037100040F080012A68118000BF2868B0F850107E
:10372000207800E06FE001EBC000801D296801F502
:10373000806131F81000C0F30900E061E06990B1E8
:10374000606980B1B4F81CC01FFA8CF3E28861692B
:10375000286803F0F1F9E1696069084460610021BB
:103760002846FDF765FB2868008800F40060002803
:1037700092D100BF2A682968B1F850100A4402F2B9
:103780000C41084600BF236953B9038848F2FF3C47
:1037900003EA0C030380038843F4004303801EE024
:1037A00023693E2B0DD800BF23695908237C03F001
:1037B000010303B1491C4FF6FF7303EA8123038021
:1037C0000DE000BF23695909237C03F01F0303B9EF
:1037D000491E4FF4004343EA8123038000BF00BF2A
:1037E00000BF00BF296809884BF68F7201EA02000A
:1037F00080F4805080F4005040F4004141F080019A
:103800002A681180F3E07100286830F8118008F40C
:10381000004000287ED000BF7200296831F81210E5
:1038200040F68F7201EA020040F0800173002A68BE
:1038300022F8131000BF06EB860105F5B47000EB0B
:10384000C104207BB0B92868B0F85010207801EB93
:10385000C000801D296801F5806131F81000C0F3B7
:103860000907002F5BD0E28861693B46286803F0B6
:1038700063F954E0E078022806D142462146284602
:10388000FDF759FB07464AE000BF00BF227852000F
:10389000296831F8121048F68F7201EA020040F4EC
:1038A000004141F0C00123785B002A6822F8131020
:1038B00000BF00BF21784900286830F8110000F4EB
:1038C0008040A8B12868B0F85010207801EBC00003
:1038D000801C296801F5806131F81000C0F30907E8
:1038E000EFB1228961693B46286803F025F916E0AB
:1038F0002868B0F85010207801EBC000801D2968BE
:1039000001F5806131F81000C0F309073FB1628909
:10391000616900E017E03B46286803F00DF9E069B3
:103920003844E061606938446061A06910B1206981
:10393000B84204D921782846FDF77AFA03E02146F7
:10394000286802F016FB08F08000B0B306EB860191
:1039500005F1280000EBC10400BF7200296831F8AE
:10396000121048F60F7201EA020040F400417300A1
:103970002A6822F8131000BFE078032807D0E07807
:1039800028B1E07802282DD108F4807050BB286857
:10399000B0F85010207801EBC000801C296801F5B8
:1039A000806131F81000C0F30909A069484505D9C4
:1039B000A069A0EB0900A06102E018E00020A0616E
:1039C000A06920B921782846FDF722FA0FE0606946
:1039D00048446061E0694844E0612146286802F09B
:1039E000C8FA04E0424621462846FDF750FB286805
:1039F000B0F8440000F4004000287FF40DAEBDE8AC
:103A0000F087704718B5034600222548006800F08B
:103A1000F00050BB22481C30006800F0805020B1FC
:103A20002048006800F4C05118E000BF1C481C305A
:103A3000006840F080501A4C1C342060204600681A
:103A400000F08050009000BF00BF1648006800F4EE
:103A5000C0512046006820F080502060B1F5C05F62
:103A600003D1B3F5404F00D1012200BF012A05D197
:103A70000D48006840F004000B4C20600A480068C4
:103A800020F001001043084C206000BF2046006871
:103A900000F00100904201D0012018BD0020FCE799
:103AA0000838024000700040003C02402DE9F0411F
:103AB00004460F4615461E46D4F89082A9194FF4C5
:103AC000835050F80800814209D921230522394644
:103AD000204600F00BFB4FF0FF30BDE8F0810020E6
:103AE000FBE70000F0B504460E46D4F8903250785B
:103AF00000F0010060B10721598106E0481E81B243
:103B00001048475C03F10C0047540029F6D116E039
:103B1000D4F89402C06906EBC60700EB8705287944
:103B2000411D1079884200DC1179598105E0481E59
:103B300081B26F5C03F10C0047540029F7D10020DB
:103B4000F0BD00001E8F000870B503460C461546F8
:103B50000821D3F89022518106E0481E81B2044822
:103B6000465C02F10C0046540029F6D1002070BDDD
:103B70002D8F000870B503460C461546D3F89022E9
:103B80000821518106E0481E81B20448465C02F1DA
:103B90000C0046540029F6D1002070BD258F000886
:103BA00070B505460E4614462078232845D00DDC16
:103BB0001A2836D005DCB0B103281AD012285AD101
:103BC0001DE01B2821D01E2855D124E02A2846D0EC
:103BD00004DC252837D028284DD13AE02F2844D0BE
:103BE0005A2848D123E022463146284600F0ADFA53
:103BF0004AE022463146284600F029FA44E02246AF
:103C000031462846FFF76EFF3EE022463146284601
:103C100000F093FA38E022463146284600F08DFA4B
:103C200032E0224631462846FFF7A4FF2CE0224628
:103C300031462846FFF788FF26E0224631462846CF
:103C400000F0C0F920E022463146284600F070F925
:103C50001AE022463146284600F0F9F814E02246E0
:103C60003146284600F0C6FA0EE022463146284684
:103C700000F098FA08E0202305223146284600F09B
:103C800035FA4FF0FF3070BD00BF0020FBE72DE993
:103C9000F04106460F46D6F8904241F268000059BE
:103CA00041F25E01095B00FB01F5B5F5805F01D2D1
:103CB000284601E04FF48050054641F25E00005B6B
:103CC000B5FBF0F01FFA80F841F264000259D6F813
:103CD0009402434604F10C01D0F810C03846E04786
:103CE000002809DA112304223946304600F0FEF993
:103CF0004FF0FF30BDE8F081ABB204F10C0281213E
:103D0000304601F0FDF841F25E00005BB5FBF0F1DA
:103D100041F264000059014441F264000151801FE6
:103D2000005BB5FBF0F141F268000059411A41F225
:103D30006800015141F22C0020448068401B41F290
:103D40002C012144886041F26800005908B9032021
:103D500020720020CEE72DE9F04106460F46D6F846
:103D6000904241F26800005941F25E01095B00FB9C
:103D700001F5B5F5805F01D2284601E04FF480508F
:103D8000054641F25E00005BB5FBF0F01FFA80F8DB
:103D900041F264000259D6F89402434604F10C0142
:103DA000D0F814C03846E047002809DA032304227B
:103DB0003946304600F09AF94FF0FF30BDE8F08107
:103DC00041F25E00005BB5FBF0F141F26400005986
:103DD000014441F264000151801F005BB5FBF0F12A
:103DE00041F268000059411A41F26800015141F264
:103DF0002C0020448068401B41F22C012144886043
:103E000041F26800005920B900213046FFF77CFAE2
:103E10001BE041F26800005941F25E01095B484332
:103E2000B0F5805F07D241F26800005941F25E01AF
:103E3000095B484301E04FF480500546ABB204F102
:103E40000C020121304600F083FF0020B6E72DE987
:103E5000F04106460F461546D6F89042207A0028D3
:103E60005ED141F20C002044007B00F080008028ED
:103E70000CD041F20C002044417B20230522304627
:103E800000F034F94FF0FF30BDE8F081D6F894022D
:103E900081683846884740B13A2302223946304685
:103EA00000F024F94FF0FF30EEE7A8780006E9783B
:103EB00040EA0140297940EA01206979084341F24A
:103EC00064010851287AE97940EA012141F2680049
:103ED00001510359001F025939463046FFF7E6FDEC
:103EE000002802DA4FF0FF30CEE70220207241F2C4
:103EF0006800005941F25E01095B484341F20C0140
:103F00002144896888420BD041F20C002044417B57
:103F100020230522304600F0E9F84FF0FF30B3E7E8
:103F20004FF48050608139463046FFF7B0FEABE772
:103F30002DE9F04105460E461746D5F89042D5F8D2
:103F40009402436841F25E00221804F58351304622
:103F5000984748B13A2302223146284600F0C6F875
:103F60004FF0FF30BDE8F0814FF483500059401E00
:103F7000000E20734FF483500059401E010C6173F2
:103F80004FF48350005B401E010AA1734FF483502D
:103F9000005D401EE07341F25E00005B011621747B
:103FA00041F25E00005B0114617441F25E00005B4F
:103FB0000112A17441F25E00015DE174082060818C
:103FC0000020CFE72DE9FC4105460F469046D5F885
:103FD0009042002605E0002104F10C008155701C80
:103FE00086B20C2EF7D3D5F8940201AA694643682D
:103FF0003846984748B13A2302223946284600F00D
:1040000075F84FF0FF30BDE8FC810821E17300989E
:10401000401E010E21740098401E010C617400982E
:10402000401E010AA1740098401EE074022121750F
:10403000BDF8040001146175BDF804000112A175FA
:10404000BDF80400E0750C2060810020DBE770B54E
:1040500004460D46D4F89012002305E0002601F135
:104060000C00C654581CC3B2122BF7D3702008732F
:104070000C26CE7441F25C00465C401C405C8642DB
:104080002BD041F25C00405C41F23C060E4416F835
:1040900030608E7341F25C00405C41F23C060E449D
:1040A00006EBC00046790E7641F25C00405C41F2BE
:1040B0003C060E4406EBC00006794E7641F25C00E9
:1040C000405C401CC6B241F25C004654405C04288F
:1040D00003D1002641F25C00465412204881107939
:1040E000122801D810794881002070BDF0B504462F
:1040F000D4F8900241F25D052D5C41F23C06064485
:1041000006F835201D02EEB241F25D052D5C41F24C
:104110003C07074407EBC5052E7141F25D052D5C98
:104120006D1CEEB241F25D052E542D5C042D03D1C1
:10413000002641F25D052E54F0BD10B503460C4635
:10414000D3F890120020488110BD2DE9F0410546BA
:104150000E461746D5F8904241F20C002044806884
:1041600060B141F20C002044417B20230522284607
:10417000FFF7BCFF4FF0FF30BDE8F081D5F89402A7
:1041800081683046884748B13A23022231462846A2
:10419000FFF7ACFF05202072801FEDE70020608153
:1041A00000BFE9E72DE9F04105460F461646D5F870
:1041B0009042707800F00200022809D124230522E1
:1041C00039462846FFF792FF4FF0FF30BDE8F081F7
:1041D00041F268000359001F025939462846FFF78B
:1041E00065FC002802DA4FF0FF30EFE70020608125
:1041F00000BFEBE72DE9F041064688461546D6F8A4
:104200009042207A00287FD141F20C002044007BAC
:1042100000F0800080280CD141F20C002044417B4A
:10422000202305223046FFF761FF4FF0FF30BDE845
:10423000F081D6F8940281684046884740B13A231D
:10424000022241463046FFF751FF4FF0FF30EEE7C4
:10425000D6F89402C1684046884740B1272302221D
:1042600041463046FFF742FF4FF0FF30DFE7A878C6
:104270000006E97840EA0140297940EA012069799D
:10428000084341F264010851287AE97940EA0121A2
:1042900041F2680001510359001F0259414630465E
:1042A000FFF704FC002802DA4FF0FF30BFE741F2CD
:1042B0006800005941F25E01095B00FB01F741F221
:1042C0000C0020448068B8420BD041F20C0020441E
:1042D000417B202305223046FFF708FF4FF0FF30D7
:1042E000A5E7B7F5805F02D2384602E00CE04FF454
:1042F0008050074601202072BBB204F10C0201215C
:10430000304600F025FD04E041463046FFF723FD2E
:104310008DE700208BE700007CB504460D4616466D
:10432000164800681821B0FBF1F01549B0FBF1F018
:104330004FF47A71484301906068B0F5827F0DD1E7
:104340002B46002280212046009600F039F898B1D3
:10435000606D40F02000606503207CBD00BF0198C7
:1043600000B908E00198401E019020688068C0F301
:10437000C0100028F3D100BF0020EEE77800002035
:1043800040420F000EB5FF20029000BF0848FEF724
:1043900055FA0128FAD14FF4FA60012301AA02A9C3
:1043A00000900348FEF7F8FC9DF804000EBD0000E5
:1043B0007001002010B50446FFF7E4FF207010BD27
:1043C0002DE9F84F04460D4690461E46DDF828902C
:1043D000FCF78AFBA0EB0900371AFCF785FB824645
:1043E0002C480068C0F3CB307843009045E0701C47
:1043F000002842D0FCF778FBA0EB0A00B84200D2BC
:10440000A7BB2068406820F0E00021684860606831
:10441000B0F5827F0DD1A068B0F5004F03D0A06841
:10442000B0F5806F05D12068006820F04000216859
:104430000860A06AB0F5005F0DD100BF2068006879
:1044400020F40050216808602068006840F40050A3
:104450002168086000BF012084F8510000BF0020DF
:1044600084F8500000BF0320BDE8F88FFFE70098F4
:1044700000B900270098401E0090206880682840FE
:10448000A84201D1012000E000204045AFD100202A
:10449000EAE7000078000020034604480068401E58
:1044A00008604FF40070108000207047000000206A
:1044B00000207047014600207047014600207047E9
:1044C0000146002070472DE9F04107460C4615468D
:1044D0001E4633462A462146002003F0F5F8002008
:1044E000BDE8F0812DE9F04107460C4615461E4611
:1044F00033462A462146002003F05AF90020BDE841
:10450000F081704710B5FCF7F5FA03F031F910BDF2
:1045100000B593B0342106A8FBF73BFF142101A896
:10452000FBF737FF1648006820F4C05040F40060E5
:10453000134908600320069001200790099010207D
:104540000A9002200F90C1031091C10411914105FE
:10455000129106A8FDF702FD08B1FBF781FF0F20BD
:10456000019001200290002003900490059000210A
:1045700001A8FDF70DFB08B1FBF772FF13B000BDFA
:1045800000700040704770B504460D46D4F88C02A8
:104590002946426820469047002070BD70B5044609
:1045A0000D4694F87402012804D0022803D0032891
:1045B0000CD101E000BF00BF6888012805D10020B0
:1045C000C4F87C02204600F04AF804E02946204660
:1045D00000F01BF800BF00BF70BD70B506460C466A
:1045E00015462B4622460021304600F0B1FB002044
:1045F00070BD70B506460C4615462B462246002176
:10460000304600F07DFC002070BD70B504460D46BC
:104610008021204600F048FC0021204600F044FCA8
:1046200070BD10B504460520C4F86C0200231A467C
:104630001946204600F08CFB002010BD70B50446E2
:104640000E4615460220C4F86C02E56125622B4631
:1046500032460021204600F053FC002070BD10B50A
:1046600004460420C4F86C0200231A46194620466A
:1046700000F046FC002010BD70B505460C462DB973
:104680002246064906A000F088F904E022460349C4
:1046900003A000F082F9014870BD0000640400200E
:1046A0004D534320436F6E66696700000246122037
:1046B00008800148704700002400002070B50546BE
:1046C0000C462DB92246064906A000F066F904E022
:1046D0002246034903A000F060F9014870BD0000C4
:1046E000640400204D534320496E74657266616313
:1046F0006500000002460420088001487047000061
:104700003800002070B505460C462246024903A039
:1047100000F043F9004870BD6404002053544D6913
:1047200063726F656C656374726F6E6963730000AA
:1047300070B505460C462DB92246064906A000F084
:104740002CF904E02246034903A000F026F90148B1
:1047500070BD00006404002053544D3332204D617D
:1047600073732053746F72616765000070B50546FE
:104770000C461A202080FBF7D9FE014870BD0000CE
:104780003C00002070B504460D46E888012804D09E
:1047900029462046FFF739FF1EE094F874020128ED
:1047A00004D0022803D0032810D109E000BF002064
:1047B000A060012204F108012046FFF73FFF0AE054
:1047C0000122211D2046FFF739FF04E0294620463B
:1047D000FFF71BFF00BF00BF70BDF8B504460E46D3
:1047E0007088001208287FD2DFE800F07E040C20D9
:1047F0007E7E5F6D207CD4F888120A6869469047F7
:10480000054676E0207C40B9D4F88C02816A68467F
:10481000884705460221697007E0D4F88C02C16A16
:104820006846884705460221697062E0B07806282C
:1048300034D2DFE800F0030B131B232B207CD4F8C9
:1048400088124A686946904705462CE0207CD4F8D7
:1048500088128A6869469047054624E0207CD4F88F
:104860008812CA686946904705461CE0207CD4F847
:1048700088120A6969469047054614E0207CD4F8FE
:1048800088124A696946904705460CE0207CD4F8B6
:1048900088128A6969469047054604E031462046F9
:1048A000FFF7B3FEF8BD00BF23E0207C30B9D4F899
:1048B0008C02416B6846884705461AE0314620461F
:1048C000FFF7A3FEEEE7207C48B9D4F88C02016B19
:1048D000684688470546072169700AE004E03146CA
:1048E0002046FFF792FEDDE731462046FFF78DFEBA
:1048F000D8E700BFBDF8000088B1F08878B1F08833
:10490000BDF80010884202DDBDF8000000E0F0882C
:104910000090BDF8002029462046FFF78FFEF08862
:1049200010B92046FFF79BFE00BFBBE70146002001
:1049300002E0421CD0B2491C0A78002AF9D1704723
:1049400070B504460D4694F87402012804D002287C
:1049500003D003281AD101E000BF00BFE888022875
:1049600004D029462046FFF750FE14E00120E06005
:10497000D4F87C0218B1E06840F00200E060022246
:1049800004F10C012046FFF759FE04E029462046B9
:10499000FFF73BFE00BF00BF70BD2DE9F0410446AC
:1049A0000D4617460026FCB12046FFF7BFFF022147
:1049B00001EB400038803A783046711CCEB22A5460
:1049C00003223046711CCEB22A540AE014F8012B9F
:1049D0003046711CCEB22A5400223046711CCEB231
:1049E0002A5420780028F1D1BDE8F081014600204A
:1049F00031B1012906D0022906D0032908D105E0EA
:104A0000002007E0022005E0012003E0022001E091
:104A1000022000BF00BF704770B504460D46164621
:104A20000CB9022070BDD4F88C0210B10020C4F87B
:104A30008C020DB1C4F88852012084F874022670EB
:104A4000204600F017F90020ECE72DE9F04104467C
:104A50000D46002600272946D4F89802FCF72DFAC7
:104A600006463046FFF7C2FF07463846BDE8F081EC
:104A70002DE9F04104460D46002600272946D4F8CA
:104A80009802FCF7E5F906463046FFF7AFFF074608
:104A90003846BDE8F0812DE9F04104460E46174640
:104AA000002E64D104F11405D4F86C02022848D118
:104AB000D5E90301884210D9D5E90301401AE8601D
:104AC000A88982B239462046FFF793FD00231A4693
:104AD0001946204600F03CF93EE02969A868B0FB81
:104AE000F1F201FB1200B8B92969A868884213D312
:104AF000A868D4F8701288420ED2002211462046CF
:104B0000FFF777FD0020C4F8700200231A4619460B
:104B1000204600F01DF91FE0D4F88C02C06840B1B7
:104B200094F87402032804D1D4F88C02C16820469A
:104B300088478021204600F0B7F92046FFF771FD35
:104B40000AE0D4F86C02042802D0D4F86C0218B938
:104B50008021204600F0A8F994F87802012818D1A5
:104B6000204600F074FB002084F8780211E0D4F8AD
:104B70008C02406950B194F87402032806D1D4F82D
:104B80008C02314642692046904702E00220BDE88F
:104B9000F0810020FBE72DE9F04104460E46174660
:104BA000BEBB04F5A075D4F86C02032825D1D5E965
:104BB0000301884210D9D5E90301401AE860D5E91C
:104BC0000301884201D2E86800E0286982B23946D0
:104BD0002046FFF702FD2FE0D4F88C02006940B1B7
:104BE00094F87402032804D1D4F88C020169204699
:104BF00088472046FFF733FD1EE0D4F86C020528F5
:104C00001AD10020C4F86C020021204600F04CF9B3
:104C100012E0FFE7D4F88C02806950B194F8740276
:104C2000032806D1D4F88C02314682692046904789
:104C300002E00220BDE8F0810020FBE72DE9F04111
:104C400004460D46002600272946D4F89802FCF7B2
:104C5000B2FC06463046FFF7C9FE07463846BDE8B7
:104C6000F08170B504460D462946D4F89802FCF749
:104C7000A5FC70BD10B504461948C0F8E842C4F858
:104C80009802184816490860082048600221144814
:104C900081600161002181610162FCF725FE08B19C
:104CA000FBF7DEFB182300221146D4F89802FCF72C
:104CB0007BF8582300228021D4F89802FCF774F87E
:104CC000982300228121D4F89802FCF76DF8D823AC
:104CD00000220121D4F89802FCF766F8002010BDEC
:104CE00064060020005C004010B50246D2F89832FD
:104CF00001F08000802809D101F07F0000EB8004E2
:104D000003F1280000EBC400807810BD01F07F00A3
:104D100000EB800403F5B47000EBC4008078F4E786
:104D20002DE9F04704460F4615461E464FF0000891
:104D3000C1462B4632463946D4F89802FCF749FC66
:104D400080464046FFF752FE81464846BDE8F08760
:104D50002DE9F04704460D4616461F464FF0000861
:104D6000C1463B4632462946D4F89802FCF777FC08
:104D700080464046FFF73AFE81464846BDE8F08748
:104D800010B504464023002211462046FFF7C8FF15
:104D900001214FF4A270015140214FF4A87001513C
:104DA0004023002280212046FFF7BAFF0121A161A4
:104DB00040216162012084F874020020C4F86C0272
:104DC0006060C4F87C02D4F8900228B12179D4F84C
:104DD0008C02426820469047002010BD014691F8A1
:104DE000750281F874020020704710B5044694F8EB
:104DF0007402032808D1D4F88C02C06920B1D4F819
:104E00008C02C16920468847002010BD02461174FB
:104E1000002070472DE9F04104460D46002600278A
:104E20002946D4F89802FCF75FFE06463046FFF7A5
:104E3000DDFD07463846BDE8F08170B504460D46F5
:104E4000294604F5207000F0E6F90120C4F86C0250
:104E500040F28620005BC4F8700294F8800200F0F3
:104E60001F0020B1012808D0022812D10BE004F560
:104E70002071204600F0B3FA13E004F520712046BB
:104E800000F01AFC0DE004F52071204600F0F8FA5D
:104E900007E094F8800200F08001204600F004F85A
:104EA00000BF00BF002070BD2DE9F04104460D4653
:104EB000002600272946D4F89802FCF7F6FB0646A0
:104EC0003046FFF793FD07463846BDE8F08170B5E0
:104ED000044600250026D4F89802FCF729FE054672
:104EE0002846FFF783FD0646304670BD014691F81F
:104EF000740281F87502042081F874020020704762
:104F00002DE9F04704460D4616461F464FF00008AF
:104F1000C1463B4632462946D4F89802FCF701FCCC
:104F200080464046FFF762FD81464846BDE8F0876F
:104F300070B504460D4629462046FEF761F900206B
:104F400070BD70B504460D4629462046FEF780F92F
:104F5000002070BD70B504460D4601212046FFF7C4
:104F600087FD0021C4F8581181212046FFF780FDFC
:104F70000021E1622046FEF78EF9D4F8900230B1AC
:104F8000D4F8900200F0D7FB0020C4F89002002073
:104F900070BD000001460A200880014870470000EB
:104FA000640100200146202008800148704700006D
:104FB000240100200146202008800148704700009D
:104FC00004010020014620200880014870470000AD
:104FD0004401002070B504460D46207C90B94FF482
:104FE0000073022201212046FFF79AFE0121C4F836
:104FF00058114B02022281212046FFF791FE012128
:10500000E16210E04023022201212046FFF788FEE2
:105010000121C4F858114023022281212046FFF7C4
:105020007FFE0121E16241F26C0000F085FBC4F8D3
:105030009002D4F8900208B9022070BD2046FEF715
:105040002FF90020F9E7024609B1C2F894120020B6
:105050007047F8B505460C46D5F890620027002049
:105060000090207800F0600000283DD0202871D109
:105070006078FE2802D0FF282ED11AE0608890B90F
:10508000E08801280FD1207800F0800080280AD124
:10509000D5F894128869804730600122314628464D
:1050A000FFF7CCFA04E021462846FFF7AEFA0227C4
:1050B00018E0608850B9E08840B9207800F080009E
:1050C000802803D02846FEF70EF904E02146284642
:1050D000FFF79BFA022705E021462846FFF795FADD
:1050E000022700BF00BF93E0607830B1012832D0C2
:1050F0000A2812D00B287DD11FE095F874020328EE
:1051000005D1022269462846FFF798FA04E02146B5
:105110002846FFF77AFA022772E095F8740203280E
:1051200005D10122311D2846FFF788FA04E0214607
:105130002846FFF76AFA022762E095F8740203280E
:1051400002D1A078706004E021462846FFF75DFA9E
:10515000022755E056E021792846FFF76FFD2179B7
:105160002846FFF785FC207900F0800080281DD1BB
:105170000021207900F00F0000EB800205F11400FF
:1051800000EB82004160287C38B94FF400730222A2
:1051900081212846FFF7C4FD05E04023022281213A
:1051A0002846FFF7BDFD0121E9621DE000212079BD
:1051B00000F00F0000EB800205F5A07000EB82000C
:1051C0004160287C38B94FF400730222012128463F
:1051D000FFF7A6FD05E04023022201212846FFF744
:1051E0009FFD0121C5F8581121792846FDF7EAFFF6
:1051F00006E0FFE721462846FFF707FA022700BF2F
:1052000000BF05E021462846FFF7FFF9022700BF4F
:1052100000BF3846F8BD0A7802704A7842708B7831
:10522000CA7803EB022242800B794A7903EB02220F
:1052300082808B79CA7903EB0222C28070470246D2
:10524000002011B1C2F88C1200E002207047014624
:105250000020704770B504460D46A88810BBE8884A
:1052600000BB688880281DD2A87800F07F0694F8DB
:105270007402032804D129462046FFF7C6F915E039
:1052800084F8766231462046FFF7C4FD2046FFF7DA
:10529000E6F91EB1022084F8740207E0012084F8C8
:1052A000740203E029462046FFF7AFF970BD70B5E0
:1052B00004460D460226D4F88C0238B1D4F88C028C
:1052C000294602682046904700B90026304670BD46
:1052D00070B504460D46A87836490870084600782F
:1052E000012804D929462046FFF78FF960E094F899
:1052F0007402022802D003284FD11CE02D48007808
:10530000A8B12C4800786060032084F87402294812
:1053100001782046FFF7CBFF022804D1294620461A
:10532000FFF773F970BD2046FFF799F902E02046B8
:10533000FFF795F93BE01F48007870B9022084F828
:1053400074021C48007860601A4801782046FFF714
:105350001AF92046FFF783F91EE0164909786068BC
:10536000884216D021792046FFF70DF911480078C0
:105370006060104801782046FFF799FF022804D1A9
:1053800029462046FFF741F9CCE72046FFF767F9A9
:1053900002E02046FFF763F909E029462046FFF7BF
:1053A00034F9044801782046FFF7EDF800BF00BF4C
:1053B00000BFB7E7CA00002070B505460C466088FC
:1053C000012804D1C5F87C022846FFF748F970BDD2
:1053D00010B504462046FFF77AFD002010BD70B5D9
:1053E00005460C460026207800F0600060B12028B9
:1053F00002D040283CD100E000BFD5F88C02214605
:1054000082682846904738E060780A2829D2DFE889
:1054100000F01923281E280A0528140F21462846C3
:10542000FFF7DBF922E021462846FFF713FF1DE0D6
:1054300021462846FFF74CFF18E021462846FFF793
:10544000A1F913E021462846FFF77AFA0EE021463B
:105450002846FFF7B1FF09E021462846FFF79EF8EE
:1054600004E021462846FFF7D0F800BF00BF04E063
:1054700021462846FFF7C9F800BF00BF304670BD7F
:105480002DE9F04105460E464FF00008347930789A
:1054900000F0600060B1202802D0402871D100E007
:1054A00000BFD5F88C02314682682846904700E15B
:1054B000307800F06000202809D1D5F88C02314600
:1054C00082682846904780464046BDE8F081707863
:1054D00000285ED001282FD0032876D195F87402D9
:1054E000022802D0032820D110E054B1802C08D02B
:1054F00021462846FFF7D8FC80212846FFF7D4FC38
:1055000003E031462846FFF780F813E0708840B981
:105510003CB1802C05D0F08818B921462846FFF709
:10552000C3FC2846FFF79BF804E031462846FFF706
:105530006CF800BF00BFB5E095F87402022802D0F5
:1055400003281FD110E054B1802C08D021462846F2
:10555000FFF7AAFC80212846FFF7A6FC03E03146AE
:105560002846FFF752F812E0708848B904F07F002F
:1055700018B121462846FFF768FA2846FFF76FF86A
:1055800005E091E031462846FFF73FF800BF00BF35
:1055900088E095F87402022802D0032876D126E02C
:1055A00034B1802C04D031462846FFF72EF872E043
:1055B00004F08000802809D104F07F0000EB800116
:1055C00005F1140000EB810008E066E004F07F00C4
:1055D00000EB800105F5A07000EB8100074600207C
:1055E0003860022239462846FFF728F853E004F0D5
:1055F000800080280ED104F00F0000EB800105F13F
:10560000140000EB8100406898B931462846FEF747
:10561000FCFF40E004F00F0000EB800105F5A070F6
:1056200000EB8100406820B931462846FEF7EDFFC7
:1056300031E004F08000802808D104F07F0000EB06
:10564000800105F1140000EB810007E004F07F0009
:1056500000EB800105F5A07000EB810007460CB15E
:10566000802C02D10020386009E021462846FFF74F
:105670003BFB10B10120386001E0002038600222BD
:1056800039462846FEF7DAFF05E0FFE731462846AF
:10569000FEF7BBFF00BF00BF04E031462846FEF71F
:1056A000B4FF00BF00BF04E031462846FEF7ADFF5F
:1056B00000BF00BF404608E770B505460C4600260F
:1056C000207800F0600030B1202802D040282AD194
:1056D00000E000BF00BF95F87402012804D0022842
:1056E00003D0032818D101E000BF00BF20790128B2
:1056F0000DD8D5F88C022146826828469047064688
:10570000E08840B93EB92846FEF7A9FF03E02146EC
:105710002846FEF77AFF04E021462846FEF775FF8B
:1057200000BF00BF04E021462846FEF76EFF00BF21
:1057300000BF002070BD704701460148704700005F
:1057400050090020F0B5024600260878400032F8E3
:10575000100048F68F1400EA0403C87830B101281D
:105760000CD0022805D003280BD104E043F40073C9
:1057700009E000BF07E043F4C06304E043F4806342
:1057800001E0012600BF00BF43F4004040F080006C
:105790000C78640022F8140000BF0C78640032F822
:1057A000144048F68F752C400D7844EA050040F40B
:1057B000004444F080040D786D0022F8154000BFCD
:1057C000087B00287ED14878002852D000BF1046C0
:1057D000B2F8505028440D7800F5806707EB0514A7
:1057E000CD886D106D00258000BF00BF0C7864006F
:1057F00032F8140000F040048CB100BF0D786D0049
:1058000032F8155048F68F7705EA070444F400454E
:1058100045F0C0050F787F0022F8175000BF00BF89
:10582000C878012813D000BF0C78640032F8144007
:1058300048F6BF7504EA050080F0200040F40044FB
:1058400044F080040D786D0022F815409EE100BF01
:105850000C78640032F8144048F6BF7504EA05007D
:1058600040F4004444F080040D786D0022F81540A7
:105870008CE100BF1046B2F8505028440D78042740
:1058800007EBC50500F5806707EB4504CD886D1073
:105890006D00258000BF00BF1546B2F8504025447A
:1058A0000C78062707EBC40405F5806707EB440472
:1058B000204600BF0F6967B9078848F2FF3C07EA36
:1058C0000C0700E057E00780078847F4004707808F
:1058D0001EE00F693E2F0DD800BF0F697C080F7CBA
:1058E00007F0010707B1641C4FF6FF7707EA84272A
:1058F00007800DE000BF0F697C090F7C07F01F07D0
:1059000007B9641E4FF4004747EA8427078000BFA9
:1059100000BF00BF00BF0C78640032F8140000F430
:1059200080448CB100BF0D786D0032F8155048F6F8
:105930008F7705EA070444F4004545F481450F7864
:105940007F0022F8175000BF00BF00BF0C78640032
:1059500032F814404BF68F7504EA050080F480504D
:1059600080F4005040F4004444F080040D786D0051
:1059700022F815400AE100BF0C78640032F81440A8
:1059800048F68F7504EA050040F4004444F4C074FE
:105990000D786D0022F8154000BF00BF00BF00BFAA
:1059A0001046B2F8505028440D7800F5806707EB98
:1059B00005140D896D106D00258000BF00BF00BF6C
:1059C00000BF1046B2F8505028440D78042707EB6A
:1059D000C50500F5806707EB45044D896D106D0026
:1059E000258000BF00BF00BF487800285DD100BF00
:1059F0000C78640032F8140000F480448CB100BFCD
:105A00000D786D0032F8155048F68F7705EA0704D7
:105A100044F4004545F481450F787F0022F8175083
:105A200000BF00BF00BF0C78640032F8140000F023
:105A300040048CB100BF0D786D0032F8155048F667
:105A40008F7705EA070444F4004545F0C0050F7858
:105A50007F0022F8175000BF00BF00BF0C78640021
:105A600032F814404BF68F7504EA050080F480503C
:105A700080F4005040F4004444F080040D786D0040
:105A800022F8154000BF00BF0C78640032F81440C3
:105A900048F6BF7504EA050040F4004444F0800471
:105AA0000D786D0022F8154070E000BF0C7864009E
:105AB00032F8140000F480448CB100BF0D786D0002
:105AC00032F8155048F68F7705EA070444F400458C
:105AD00045F481450F787F0022F8175000BF00BFC2
